:1000000012C02CC02BC02AC029C028C0A1C126C044
:1000100025C024C023C005C42DC420C01FC01EC0DD
:100020001DC01CC01BC011241FBECFE5D4E0DEBF25
:10003000CDBF10E0A0E6B0E0ECECF6E102C0059028
:100040000D92A639B107D9F710E0A6E9B0E001C0DA
:100050001D92AA3FB107E1F789D436CBD1CFCF9318
:10006000C82F892FD5D38C2FD3D3CF9108958093C8
:10007000F7002091F8003091F900813049F081308B
:1000800028F0823041F0833071F408C0206C07C042
:100090002D71226004C02571286201C02D7130933A
:1000A000F9002093F800C2988DE08A95F1F70000DE
:1000B0008091F8009091F900D2DF8DE08A95F1F7F8
:1000C0000000C29A0895CF93DF93813019F4C0E005
:1000D000D0EE02C0C0E0D0ECE82FF0E0EE0FFF1F42
:1000E000EE0FFF1FE751FF4F4083518362837383FD
:1000F000C2988DE08A95F1F700006081718182815C
:10010000938120E030E040E054E446D720E030E046
:1001100044E352E41FD686D6DC01CB018C2B9D2B09
:100120009EDF8DE08A95F1F70000C29ADF91CF91B2
:1001300008958093F5002091F8003091F90088230C
:1001400019F0813041F402C0377F01C0386030932C
:10015000F9002093F800C2988DE08A95F1F700002D
:100160008091F8009091F9007ADF8DE08A95F1F79F
:100170000000C29A08958091F50008958093F600DA
:100180002091F8003091F900882319F0813041F472
:1001900002C03B7F01C034603093F9002093F80027
:1001A000C2988DE08A95F1F700008091F800909157
:1001B000F90055DF8DE08A95F1F70000C29A0895A5
:1001C0008091F60008958F929F92AF92BF92CF9246
:1001D000DF92EF92FF92CF93DF93C82F6A017B01EA
:1001E000CB01BA0125E93FEB46E551E4D5D620E045
:1001F00030E040E850E4D0D615D64B015C01EC2F3E
:10020000F0E0EE0FFF1FEE0FFF1FEF51FF4FC08218
:10021000D182E282F382C13019F4C0E0D0E802C09A
:10022000C0E0D0E4C2988DE08A95F1F7000080919B
:10023000F8009091F900906212DFD501C40122E02C
:10024000B695A795979587952A95D1F79F738C2B8F
:100250009D2B05DFC5019F738C2B9D2B00DF8DE04F
:100260008A95F1F70000C29ADF91CF91FF90EF904D
:10027000DF90CF90BF90AF909F908F900895809126
:10028000F8009091F90090629093F9008093F80043
:10029000BA9AC29A8AE18A95F1F700C0C2988DE0B5
:1002A0008A95F1F7000080E491E0D9DE8091F800B2
:1002B0009091F90080649093F9008093F8008DE0AC
:1002C0008A95F1F70000C29A80E040E050E0BA0160
:1002D0007ADF81E040E050E060E271E474DF80E0CA
:1002E00040E050E0BA01EFDE81E040E050E0BA01CA
:1002F000EADE80E01EDF80E041DF0895CF92DF92EA
:10030000EF92FF926C01EE24FF24C701B601B6D52F
:10031000DC01CB018093F1009093F200A093F300F5
:10032000B093F400A7019601E6E0220F331F441FAB
:10033000551FEA95D1F760E072E18AE790E0C2D6F6
:100340003BBD2ABDFF90EF90DF90CF9008950895B8
:100350001F920F920FB60F9211242F933F934F933A
:100360005F936F937F938F939F93AF93BF93EF931D
:10037000FF932091F8003091F9008091F5008230D0
:1003800041F480E098E0822793279093F9008093CE
:10039000F8008091F600823061F48091F80090912D
:1003A000F90040E054E0842795279093F90080936A
:1003B000F8008091F8009091F9002817390759F05A
:1003C000C2982DE02A95F1F7000049DE8DE08A956C
:1003D000F1F70000C29AFF91EF91BF91AF919F9109
:1003E0008F917F916F915F914F913F912F910F90DE
:1003F0000FBE0F901F901895EF920F93E7E0F0E07B
:10040000AD98E430F105C1F0E530F1053CF4E130A0
:10041000F105B1F0E230F105D1F410C0E630F1059C
:1004200039F0E630F10534F0E730F10581F40AC027
:10043000902F09C0922F07C0942F05C0962F03C09C
:10044000982F01C09E2D992311F0AB9A01C0AB9853
:10045000AD9A31979FEFEF3FF90791F6AD98AC98C1
:10046000AC9A0F91EF900895DF92EF92FF920F9365
:100470001F93CF93DF93D82EF62E142FD22FC02F99
:1004800081E06D2D4F2D212F0D2FEC2EB5DF80E05B
:100490006D2D4F2D212FB0DFDF91CF911F910F9147
:1004A000FF90EF90DF9008950F93CF93C82F682FA0
:1004B0006071482F4072282F2074082F007881E047
:1004C000D3DF6C2F61704C2F42702C2F24700C2FB7
:1004D000087081E0C9DFCF910F9108950F9380E0FC
:1004E00060E040E020E000E0BFDF80E061E040E06D
:1004F00020E0BADF0F9108950F9380E060E040E0C4
:1005000021E001E0B1DF80E060E040E020E000E0D9
:10051000ABDF0F9108950F938FEF90E7A2E081502A
:100520009040A040E1F700C0000080E060E041E0C2
:1005300020E000E099DFAFE0B7E21197F1F700C0EB
:10054000000080E060E041E020E08EDF8FE097E295
:100550000197F1F700C0000080E060E040E020E09B
:1005600001E082DFAFE0B7E21197F1F700C00000D1
:1005700080E060E040E020E000E076DF80E060E0E6
:1005800040E021E001E070DFA9DF0F9108953E9A7D
:100590003F983B983A9A399A38983D9A379A309AC8
:1005A000319A329A369A8CE090E089D1789481E43D
:1005B000B4D108958CE090E082D1789488E022D183
:1005C00087B38F7387BB88B3806C88BB8D98959AEF
:1005D00081B3806C81BB82B38F7382BBB89AC098A1
:1005E000B998C19AA198A99AA09AA89881B3877E30
:1005F00081BB82B3886182BB84B3886384BB85B3CB
:10060000877C85BB3CDEC3DF86DF089582B38F73B2
:1006100082BBC098089580919800909199000097AE
:1006200029F001969093990080939800809198000A
:100630009091990023E18838920720F01092990058
:10064000109298008091980090919900009709F07D
:1006500079C0B79918C0DADF80919600823039F4FA
:1006600080917400882329F481E080937400979A24
:1006700002C01092740081E090E090939900809302
:10068000980082E032C0B69917C0C0DF8091960012
:10069000813031F490917400992321F48093740097
:1006A000C09A02C01092740081E090E0909399008B
:1006B0008093980081E019C085991BC0A7DF8091C5
:1006C0009600833039F480917400882329F481E006
:1006D00080937400969A02C01092740081E090E0BA
:1006E000909399008093980083E080939600BFDCFC
:1006F0000895B19910C080917300882311F487E0A8
:1007000001C081508093730081E090E09093990044
:10071000809398000895999915C080919700882337
:1007200029F481E080939700A89A03C01092970063
:10073000A89880919700FDDC81E090E0909399006B
:1007400080939800089580B320919A0030E090E063
:100750008870907028173907C1F080919B00803114
:1007600029F480B38871883149F416C0882331F4A4
:1007700020B3287181E090E0283111F080E090E012
:1007800020B3287120939B0002C080E090E020B34A
:10079000287020939A0008958FEF9FEFF1CF0F9369
:1007A0001F93CF93DF938C01C0E0D0E0F8018191DB
:1007B0008F01882349F08A3011F49EDE01C074DE77
:1007C0002196C832D10591F7DF91CF911F910F91FA
:1007D00008950F931F938830910560F4FC01EE0F8C
:1007E000FF1FEE0FFF1FEB58FF4F00811181228189
:1007F000338103C000E010E09801B801C9011F91E6
:100800000F91089597B39C6297BB80658DB9089549
:100810008FB9779BFECF08951FB8779BFECF8FB11E
:1008200008951F920F920FB60F9211242F938F935A
:100830009F93EF93FF938BB19CB1E0919E00EF5F8C
:10084000EF7120919D00E21741F08871E0939E00C6
:10085000F0E0EF55FF4F908301C082E080939C0051
:10086000FF91EF919F918F912F910F900FBE0F905D
:100870001F9018951F920F920FB60F9211248F930D
:100880009F93EF93FF939091A00080919F00981702
:1008900061F0E0919F00EF5FEF71E0939F00F0E067
:1008A000EF53FF4F80818CB901C05598FF91EF91B4
:1008B0009F918F910F900FBE0F901F9018951092DF
:1008C000A00010929F0010929E0010929D0097FF32
:1008D00003C022E02BB99F7790BD89B988E98AB916
:1008E00086E880BD089590919E0080919D009817A4
:1008F00089F0E0919D00EF5FEF71E0939D00F0E0E3
:10090000EF55FF4F208130919C00932F80E0820FA4
:10091000911D089580E091E008959091A0009F5F5F
:100920009F7120919F009217E1F3E92FF0E0EF53C0
:10093000FF4F80839093A000559A0895CF93DF9343
:10094000EC0101C0EADF89918823E1F7DF91CF91C3
:100950000895CF93DF93EC0101C0DFDFFE01219604
:1009600084918823D1F7DF91CF910895CF93DF93BE
:10097000CDB7DEB7E0970FB6F894DEBF0FBECDBFA0
:1009800019DE83E7CADF19821A821B821C8282E386
:1009900090E0A0E0B0E08D839E83AF83B8878FEFB7
:1009A00090E7A2E081509040A040E1F700C0000035
:1009B0009924AA24BB2430E4832E49E0242E312C30
:1009C0002C0E3D1E5AE0452E512C612C712C36996F
:1009D00006C095B015B814B886B1806C86B9089475
:1009E000A11CB11C90E1A91697E2B906C9F4809147
:1009F0007400882399F480919600823041F083300E
:100A000051F0813059F492B3982792BB07C088B354
:100A1000805888BB03C082B3882582BBAA24BB242C
:100A2000C50164EC79E03AD3009709F0D4C056DDF3
:100A3000AFE9BFE01197F1F700C00000E091970027
:100A4000F0E0EE0FFF1FEE0FFF1F81E090E08C0F34
:100A50009D1FE80FF91FC080D180E280F380ADB701
:100A6000BEB71A970FB6F894BEBF0FBEADBF0DB795
:100A70001EB70F5F1F4F12963C922E92119780E681
:100A800090E0F80193838283C701B601A30192012C
:100A90003BD3D80114962D933D934D935C931797B8
:100AA000C701B601A30192010DD3DC01CB01F8010E
:100AB0009187808744D38DB79EB70A960FB6F89476
:100AC0009EBF0FBE8DBF86E6EFDC80919700805DF4
:100AD000EBDC8AE3E9DC80E2E7DC25E9C22E20E0FA
:100AE000D22E07E010E0EE240115110519F48EE274
:100AF000DBDC05C00130110511F4EE24E394E09134
:100B00009700F0E0EE0FFF1FEE0FFF1FA1E0B0E037
:100B1000AC0FBD1FEA0FFB1F608171818281938141
:100B2000F60152914291329122916F01CBD2CA01CA
:100B3000B901A3019201C6D2862F2091730030E043
:100B4000662379F02017310739F4F8E8AF16F3E19E
:100B5000BF0611F48FE501C0805DA6DCEE24E394AE
:100B600010C02017310739F428E8A21623E1B20695
:100B700011F48FE505C0EE2011F080E301C080E2A2
:100B800093DC015010408FEF0F3F180709F0ACCFF6
:100B9000B3DC00D000D000D0EDB7FEB73196ADB7D2
:100BA000BEB712963C922E92119787E690E09383FF
:100BB000828383E1A92DA89FC0011124958384839A
:100BC000BED2EDB7FEB736960FB6F894FEBF0FBE95
:100BD000EDBFC101E4DD1FDDB6DD7C01FFEF8F3F1E
:100BE0009F07B1F4E0919700F0E0EE0FFF1FEE0FCA
:100BF000FF1F81E090E08C0F9D1FE80FF91F80819F
:100C00009181A281B3810097A105B10509F480C04B
:100C1000E0917300F0E0E830F10558F4EE0FFF1FAB
:100C2000EE0FFF1FEB58FF4F20813181428153812E
:100C300003C020E030E0A90180917400813009F008
:100C400063C09FEFE9169FEFF906D9F4E091970092
:100C5000F0E0EE0FFF1FEE0FFF1FA1E0B0E0AC0FC2
:100C6000BD1FEA0FFB1F80819181A281B381821792
:100C70009307A407B50728F4108211821282138209
:100C800022C00091970010E0000F111F000F111FEC
:100C9000E1E0F0E0EC0FFD1F0E0F1F1FB7018827EA
:100CA00077FD8095982FDBD1DC01CB01F8014081E5
:100CB000518162817381840F951FA61FB71F8083A6
:100CC0009183A283B383E0919700F0E0EE0FFF1FC2
:100CD000EE0FFF1F81E090E08C0F9D1FE80FF91FC2
:100CE00080819181A281B381803021EE920725EF2E
:100CF000A20725E0B20740F080E091EEA5EFB5E055
:100D000080839183A283B383E114F10409F45FCE5D
:100D100080917400813009F05ACE00919700E02F45
:100D2000F0E0EE0FFF1FEE0FFF1F81E090E08C0F51
:100D30009D1FE80FF91F60817181828193819ED090
:100D400020E030E040E251E405D0AB01BC01802F4F
:100D50003ADA3DCE0CD0E6C0DED040F0D5D030F04F
:100D600021F45F3F19F0C7C0511110C1CAC0EBD0C8
:100D700098F39923C9F35523B1F3951B550BBB2762
:100D8000AA2762177307840738F09F5F5F4F220F0F
:100D9000331F441FAA1FA9F333D00E2E3AF0E0E808
:100DA00030D091505040E695001CCAF729D0FE2F54
:100DB00027D0660F771F881FBB1F261737074807E6
:100DC000AB07B0E809F0BB0B802DBF01FF2793589C
:100DD0005F4F2AF09E3F510568F08DC0D7C05F3F3E
:100DE000ECF3983EDCF3869577956795B795F79584
:100DF0009F5FC9F7880F911D9695879597F908957C
:100E0000E1E0660F771F881FBB1F62177307840717
:100E1000BA0720F0621B730B840BBA0BEE1F88F726
:100E2000E095089598D088F09F5790F0B92F9927B2
:100E3000B751A0F0D1F0660F771F881F991F1AF0E5
:100E4000BA95C9F712C0B13081F09FD0B1E00895D2
:100E50009CC0672F782F8827B85F39F0B93FCCF353
:100E6000869577956795B395D9F73EF490958095DB
:100E7000709561957F4F8F4F9F4F0895E89409C0FB
:100E800097FB3EF490958095709561957F4F8F4FBD
:100E90009F4F9923A9F0F92F96E9BB279395F695D3
:100EA000879577956795B795F111F8CFFAF4BB0F51
:100EB00011F460FF1BC06F5F7F4F8F4F9F4F16C0B5
:100EC000882311F096E911C0772321F09EE8872F3F
:100ED000762F05C0662371F096E8862F70E060E0FB
:100EE0002AF09A95660F771F881FDAF7880F969574
:100EF000879597F9089597F99F6780E870E060E01B
:100F000008959FEF80EC089500240A9416161706A2
:100F100018060906089500240A94121613061406EA
:100F200005060895092E0394000C11F4882352F04D
:100F3000BB0F40F4BF2B11F460FF04C06F5F7F4F05
:100F40008F4F9F4F089557FD9058440F551F59F0EC
:100F50005F3F71F04795880F97FB991F61F09F3FA6
:100F600079F087950895121613061406551FF2CFCF
:100F70004695F1DF08C0161617061806991FF1CF1F
:100F800086957105610508940895E894BB27662746
:100F90007727CB0197F908950BD0C4CFB5DF28F0A0
:100FA000BADF18F0952309F0A6CFABCF1124EECF0E
:100FB000CADFA0F3959FD1F3950F50E0551F629FB4
:100FC000F001729FBB27F00DB11D639FAA27F00DA2
:100FD000B11DAA1F649F6627B00DA11D661F829FC9
:100FE0002227B00DA11D621F739FB00DA11D621FAE
:100FF000839FA00D611D221F749F3327A00D611DCB
:10100000231F849F600D211D822F762F6A2F1124AC
:101010009F5750408AF0E1F088234AF0EE0FFF1FFF
:10102000BB1F661F771F881F91505040A9F79E3F36
:10103000510570F060CFAACF5F3FECF3983EDCF330
:10104000869577956795B795F795E7959F5FC1F773
:10105000FE2B880F911D9695879597F90895629FAD
:10106000D001739FF001829FE00DF11D649FE00DA0
:10107000F11D929FF00D839FF00D749FF00D659F01
:10108000F00D9927729FB00DE11DF91F639FB00D00
:10109000E11DF91FBD01CF0111240895AA1BBB1B3F
:1010A00051E107C0AA1FBB1FA617B70710F0A61B68
:1010B000B70B881F991F5A95A9F780959095BC0189
:1010C000CD010895A1E21A2EAA1BBB1BFD010DC084
:1010D000AA1FBB1FEE1FFF1FA217B307E407F507E8
:1010E00020F0A21BB30BE40BF50B661F771F881FC4
:1010F000991F1A9469F760957095809590959B015A
:10110000AC01BD01CF01089597FB092E05260ED035
:1011100057FD04D0D7DF0AD0001C38F45095409515
:10112000309521953F4F4F4F5F4F0895F6F79095BB
:101130008095709561957F4F8F4F9F4F0895AEE0DA
:10114000B0E0E4EAF8E097C20D891E8986E08C835E
:101150001A8309838FEF9FE79E838D83AE01475EDD
:101160005F4FCE0101966F89788D08D0EF81F885A9
:10117000E00FF11F10822E96E4E099C2ADE0B0E0DE
:10118000E3ECF8E06AC23C017D876C875A01FC0100
:1011900017821682838181FFBBC12E010894411CF6
:1011A000511CF3019381EC85FD8593FD859193FF9F
:1011B0008191FD87EC87882309F4A6C1853241F42B
:1011C00093FD859193FF8191FD87EC87853221F412
:1011D00090E0B301B8D1E5CFFF24EE2410E0103247
:1011E000B0F48B3269F08C3228F4803251F08332C3
:1011F00071F40BC08D3239F0803349F411602CC08A
:101200001260146029C0186027C0106125C017FD46
:101210002EC0282F20532A3098F416FF08C08F2D97
:10122000880FF82EFF0CFF0CF80EF20E15C08E2D55
:10123000880FE82EEE0CEE0CE80EE20E10620CC0E9
:101240008E3221F416FD60C1106406C08C3611F494
:10125000106802C0883659F4EC85FD8593FD8591B0
:1012600093FF8191FD87EC87882309F0B8CF982FF1
:101270009554933018F09052933038F424E030E0D5
:10128000A20EB31E3FE339830FC0833631F083379C
:1012900081F0833509F056C021C0F5018081898332
:1012A00022E030E0A20EB31E21E0C22ED12C42017A
:1012B00013C092E0292E312C2A0C3B1CF5018080B2
:1012C000918016FF03C06F2D70E002C06FEF7FEFBB
:1012D000C4012ED16C0151011F7714C082E0282E69
:1012E000312C2A0C3B1CF5018080918016FF03C035
:1012F0006F2D70E002C06FEF7FEFC4010ED16C0163
:101300001068510113FD1AC005C080E290E0B301DE
:101310001AD1EA948E2D90E0C816D906B0F30EC00B
:10132000F40117FD859117FF81914F0190E0B30102
:101330000AD1E110EA940894C108D108C114D1047B
:1013400079F7DFC0843611F0893649F5F50117FFCA
:1013500007C080819181A281B38124E030E008C080
:1013600080819181AA2797FDA095BA2F22E030E0D5
:10137000A20EB31E012F0F76B7FF08C0B095A0953F
:10138000909581959F4FAF4FBF4F0068BC01CD0135
:10139000A2012AE030E003D1D82ED4183EC0853710
:1013A00021F41F7E2AE030E020C0197F8F36A9F09B
:1013B000803720F4883509F0A7C00BC0803721F0B2
:1013C000883709F0A1C001C0106114FF09C0146082
:1013D00007C014FF08C0166006C028E030E005C052
:1013E00020E130E002C020E132E0F50117FF07C044
:1013F000608171818281938144E050E006C0608108
:10140000718180E090E042E050E0A40EB51EA201A0
:10141000C6D0D82ED418012F0F7706FF09C00E7F33
:10142000DF1430F404FF06C002FD04C00F7E02C0CA
:101430001D2D01C01F2D802F90E004FF0CC0FE0168
:10144000ED0DF11D2081203311F4097E09C002FF4A
:1014500006C01E5F05C086789070009709F01F5F78
:10146000802E992403FD11C000FF0CC0FD2C1E1519
:1014700048F4FE0CF11A1E2D05C080E290E0B30185
:1014800062D01F5F1E15C8F304C01E1510F4E11AC8
:1014900001C0EE2484FE0EC080E390E0B30153D07F
:1014A00082FE1DC081FE03C088E590E010C088E781
:1014B00090E00DC0C40186789070009781F081FCA7
:1014C00002C080E201C08BE207FD8DE290E0B30133
:1014D0003AD005C080E390E0B30135D0FA94DF1430
:1014E000C8F3DA94F201ED0DF11D808190E0B301B3
:1014F0002AD0DD20B1F705C080E290E0B30123D00F
:10150000EA94EE20C9F74DCEF3018681978102C09F
:101510008FEF9FEF2D96E2E1BCC0FC01059061507A
:1015200070400110D8F7809590958E0F9F1F0895F9
:10153000FC016150704001900110D8F780959095A2
:101540008E0F9F1F08950F931F93CF93DF938C01EE
:10155000EB018B8181FF1BC082FF0DC02E813F817B
:101560008C819D812817390764F4E881F981019302
:10157000F983E88306C0E885F985802F09950097EF
:1015800031F48E819F8101969F838E8302C00FEF7D
:101590001FEFC801DF91CF911F910F910895FA01BC
:1015A000AA27283051F1203181F1E8946F936E7FA2
:1015B0006E5F7F4F8F4F9F4FAF4FB1E03ED0B4E093
:1015C0003CD0670F781F891F9A1FA11D680F791FD4
:1015D0008A1F911DA11D6A0F711D811D911DA11DE5
:1015E00020D009F468943F912AE0269F11243019F5
:1015F000305D3193DEF6CF010895462F4770405D90
:101600004193B3E00FD0C9F7F6CF462F4F70405D3E
:101610004A3318F0495D31FD4052419302D0A9F799
:10162000EACFB4E0A6959795879577956795BA9593
:10163000C9F700976105710508959B01AC010A2E59
:1016400006945795479537952795BA95C9F7620F30
:10165000731F841F951FA01D08952F923F924F92D4
:101660005F926F927F928F929F92AF92BF92CF9232
:10167000DF92EF92FF920F931F93CF93DF93CDB73B
:10168000DEB7CA1BDB0B0FB6F894DEBF0FBECDBFB3
:1016900009942A88398848885F846E847D848C8484
:1016A0009B84AA84B984C884DF80EE80FD800C818D
:1016B0001B81AA81B981CE0FD11D0FB6F894DEBF70
:0C16C0000FBECDBFED010895F894FFCFE0
:1016CC00256C642E2564004144433A202564206D2A
:1016DC00560A000101010000000A0000006400002D
:1016EC0000E803000010270000A086010040420F14
:0616FC000080969800003A
:00000001FF
