:100000000C942A000C9447000C9447000C94470071
:100010000C9447000C9447000C9447000C94470044
:100020000C9447000C9447000C9447000C94470034
:100030000C9447000C9447000C9447000C94470024
:100040000C9447000C9447000C9447000C94470014
:100050000C94470011241FBECFE5D8E0DEBFCDBF12
:1000600010E0A0E6B0E0E6EDFEE202C005900D92E1
:10007000AC38B107D9F710E0ACE8B0E001C01D9290
:10008000A13BB107E1F70E94B7050C9469170C94E6
:1000900000008FB9779BFECF779A8FB10895EF92CA
:1000A0000F93E7E0F0E0D998E430F105C1F0E530D6
:1000B000F1053CF4E130F105B1F0E230F105D1F4A5
:1000C00010C0E630F10539F0E630F10534F0E730E4
:1000D000F10581F40AC0902F09C0922F07C0942F18
:1000E00005C0962F03C0982F01C09E2D992311F0B3
:1000F000DB9A01C0DB98D99A31979FEFEF3FF90760
:1001000091F6D998DA98DA9A0F91EF900895DF92E4
:10011000EF92FF920F931F93CF93DF93D82EF62E7B
:10012000142FD22FC02F81E06D2D4F2D212F0D2F99
:10013000EC2E0E944F0080E06D2D4F2D212F0E944C
:100140004F00DF91CF911F910F91FF90EF90DF90C3
:1001500008950F93CF93C82F682F6071482F407276
:10016000282F2074082F007881E00E9487006C2FD0
:1001700061704C2F42702C2F24700C2F087081E07E
:100180000E948700CF910F9108950F9380E060E067
:1001900040E020E000E00E94870080E061E040E075
:1001A00020E00E9487000F9108950F9380E060E0A7
:1001B00040E021E001E00E94870080E060E040E054
:1001C00020E000E00E9487000F9108950F938FEFC9
:1001D00091EEA4E081509040A040E1F700C0000003
:1001E00080E060E041E020E000E00E948700AFE1B5
:1001F000BEE41197F1F700C0000080E060E041E04C
:1002000020E00E9487008FE19EE40197F1F700C093
:10021000000080E060E040E020E001E00E94870014
:10022000AFE1BEE41197F1F700C0000080E060E0AC
:1002300040E020E000E00E94870080E060E040E0D5
:1002400021E001E00E9487000E94C5000F910895FF
:100250001F93CF93DF93EB01C4981D2F12951F704E
:100260008111105D80E00E944900812F0E944900A9
:10027000CE0124E0969587952A95E1F70E944900E2
:100280008C2F8295807F0E944900D0938E00C0936E
:100290008D00C49ADF91CF911F9108950F931F9302
:1002A000CF93DF930F92CDB7DEB7C498662311F0DA
:1002B00000E001C002E0882311F413E001C01CE05B
:1002C00084E069830E94490080E00E944900802FF9
:1002D0000E944900812F0E9449006981662321F410
:1002E00010928E0010928D00C49A0F90DF91CF91E2
:1002F0001F910F910895FF920F931F93CF93DF9358
:10030000F82E8B01C82FD0E06115710539F460E03B
:100310000E944E01C057DF4F18820FC0C057DF4FF9
:100320008881882331F48F2D61E00E944E0181E0A5
:1003300088838F2DB8010E942801DF91CF911F91F2
:100340000F91FF900895CF92DF92EF92FF9220914C
:100350008F00213069F02230B1F00F2EF0E0CF2E67
:10036000F0E0DF2EF0EAEF2EF1E4FF2EF02D15C0C5
:100370000F2EF0E0CF2EF0E0DF2EFCEAEF2EF1E4BE
:10038000FF2EF02D0AC00F2EFDECCF2EFCECDF2E41
:10039000F8EAEF2EF1E4FF2EF02D20E030E040E807
:1003A00057E40E94B8139B01AC01C701B6010E943B
:1003B000B81320E030E040E250E40E943F120E9477
:1003C000A712FF90EF90DF90CF900895959A80E06C
:1003D00090E040E050E061E070E09498839909C0BB
:1003E0009B01082E02C0220F331F0A94E2F7420F2E
:1003F000531F949A01968031910579F79598CA0117
:10040000089527E030E090E0969AAC01022E02C0F9
:10041000559547950A94E2F740FF02C0979A01C0AC
:1004200097989698215030404FEF2F3F340761F74F
:10043000969A089508950F931F93AB01BC01A19A5A
:10044000A99AA898AD98AC9887E190E0A8988A01FD
:100450009B01082E04C036952795179507950A9499
:10046000D2F79801217030702115310511F0A99A49
:1004700001C0A998A89A01972FEF8F3F920731F7F3
:10048000A898AC9AAD9AA1981F910F9108950F93D7
:100490001F93A89A9A9B06C0813031F00FEF1FEF8F
:1004A000980125C0813009F4AD98AB9840E050E048
:1004B00000E010E0980161E070E0A898999B0FC0FF
:1004C000CB01042E02C0880F991F0A94E2F7AA27D5
:1004D00097FDA095BA2F080F191F2A1F3B1FA89A36
:1004E0004F5F5F4F4831510541F7AB9AAD9AB80164
:1004F000C9011F910F9108958AB38E608ABB8BB397
:10050000817F8BBB87B3806B87BBBE986C9A689AE0
:100510006E9A8B9881B3806381BB949A81B3806C0F
:1005200081BB82B3806C82BB84B3896384BB85B397
:10053000896385BB87B3836087BB88B38C7F88BBA7
:1005400078940E94E6000895829590E09C012373C0
:100550003070220F331F220F331F8C7C90709595C3
:10056000879595958795282B30E0C9018575907002
:10057000880F991F2A7A307035952795822B089518
:100580000F931F9320918F00213051F0213018F0EC
:100590002230D1F40CC02AEB33E140E050E00FC030
:1005A00028EC30E040E050E00E941B1404C0660FCD
:1005B000771F881F991F25E630E040E050E00E9439
:1005C0004E1489019A0103C000E010E09801B801BF
:1005D000C9011F910F910895CF92DF92EF92FF9280
:1005E0006B017C018091920090919300A091940006
:1005F000B091950020E3C21625E7D20620E0E2067E
:1006000020E0F20604F1803325E7920720E0A207FC
:1006100020E0B20724F080918F00813029F0C09A49
:10062000C19881E080938F00C701B6010E94DE125D
:1006300020E034E244E759E40E943F1220E030E039
:1006400048EC52E419C0803325E7920720E0A20766
:1006500020E0B20724F480918F00823029F0C09806
:10066000C19A82E080938F00C701B6010E94DE121A
:1006700020E034E244E759E40E943F120E94A301C3
:10068000AB01BC018091960090919700A0919800D9
:10069000B0919900481759076A077B07A1F0C092EB
:1006A0009200D0929300E0929400F09295004093D3
:1006B000960050939700609398007093990081E0A2
:1006C000BA010E947B01FF90EF90DF90CF900895D8
:1006D0004F925F926F927F928F929F92AF92BF9252
:1006E000EF92FF920F931F9329013A010E94DE12AD
:1006F0004B015C01C801B7010E94DE129B01AC01F5
:10070000C501B4010E943F1220E034E244E759E4FD
:100710000E94B8130E94A712A30192010E94EC024A
:100720001F910F91FF90EF90BF90AF909F908F908F
:100730007F906F905F904F9008954F925F926F926D
:100740007F928F929F92AF92BF92CF92DF92EF9261
:10075000FF920F931F934B015C0129013A01C801DD
:10076000B7010E94DE126B017C01C501B4010E9439
:10077000DE1220E030E04AE754E40E94B8139B0107
:10078000AC01C701B6010E943F1220E034E244E709
:1007900059E40E94B8130E94A712A30192010E947B
:1007A000EC021F910F91FF90EF90DF90CF90BF90E0
:1007B000AF909F908F907F906F905F904F90089533
:1007C000CF92DF92EF92FF926B017C0180919A00B1
:1007D00090919B00A0919C00B0919D008C159D056F
:1007E000AE05BF05D1F0C701B6010E94DE1220E0C0
:1007F00034E244E759E40E943F120E94A301AB0196
:10080000BC0181E0BA010E947B01C0929A00D092A3
:100810009B00E0929C00F0929D00FF90EF90DF9093
:10082000CF90089511B88CE080B9089594EA96BFEE
:1008300006B607FEFDCF91B1987F983011F0903148
:1008400079F483B984E886BF06B607FEFDCF91B17F
:10085000987F983139F081E0903429F480E0089550
:1008600081E0089580E0089544EA34E824E946BF31
:1008700006B607FEFDCF91B1987F983011F0903108
:10088000B1F783B936BF06B607FEFDCF91B1987FA9
:10089000903211F0983529F426BF06B604FCFDCF3E
:1008A000E6CF08950E941604089584E986BF06B62F
:1008B00004FCFDCF089583B984E886BF06B607FE21
:1008C000FDCF91B1987F81E0983209F480E00895DE
:1008D00084EC86BF06B607FEFDCF83B1089584E899
:1008E00086BF06B607FEFDCF83B10895A0E3B0E052
:1008F000ECE7F4E00C948D14298F3A8F4B8F5C8FCA
:100900006D8F7E8F8F8F98A3A98ABA8ACB8ADC8A53
:10091000ED8AFE8A0F8B188F098D1A8D2B8D3C8DD9
:1009200009A31AA32BA33CA3680179018FEF9FEFC2
:10093000A0E0B0E0C822D922EA22FB2289012227C6
:10094000332709A71AA72BA73CA709891A892B893E
:100950003C890DA31EA32FA338A748015901882263
:100960009922AA22BB22290166247724C501B40159
:10097000A70196010E941B146DA77EA78FA798ABB5
:10098000C301B2010E941B146B017C01C501B401BB
:1009900029A53AA54BA55CA50E941B144B015C013F
:1009A000C301B2010E941B14AB01BC01C80CD91CCD
:1009B000EA1CFB1C0DA51EA52FA538A9C901AA2755
:1009C000BB27C80ED91EEA1EFB1EC814D904EA04B0
:1009D000FB0420F4405050406F4F7F4FC701AA27BF
:1009E000BB27840F951FA61FB71F8D839E83AF83E0
:1009F000B8877601DD24CC244DA55EA56FA578A926
:100A000060707070C40ED51EE61EF71EC982DA82B1
:100A1000EB82FC821C2D0A818B804C808D878E811D
:100A20008E878F818F878885888B2D893E894F8916
:100A3000588D69A17AA18BA19CA10E941B146B0106
:100A40007C012D8D3E8D4F8D58A16DA17EA18FA172
:100A500098A50E941B14DC01CB01C80ED91EEA1E0A
:100A6000FB1E8D859E85AF85B8898C0D9D1DAE1DA5
:100A7000BF1D8D879E87AF87B88B682F7E85212FFE
:100A8000302F482D542D8F859889E096E0E10C9405
:100A9000A9140F93CF93DF93CDB7DEB760970FB64E
:100AA000F894DEBF0FBECDBF002309F456C02987DE
:100AB0003A874B875C876D877E878F87988B20E28C
:100AC000201B8D859E85AF85B889AC01BD011216AE
:100AD000B4F0770F440B542FBA014D835E836F83BC
:100AE0007887332727FD3095309521953F4F04C0F7
:100AF000B595A795979587952A95D2F722C0002E90
:100B000004C075956795579547950A94D2F74D831C
:100B10005E836F83788704C0880F991FAA1FBB1F4D
:100B20002A95D2F749855A856B857C8504C07695D0
:100B30006795579547950A95D2F7842B952BA62B49
:100B4000B72B89839A83AB83BC8329813A814B81FC
:100B50005C816D817E818F81988560960FB6F89457
:100B6000DEBF0FBECDBFDF91CF910F910895CF9320
:100B7000DF93CDB7DEB7C456D0400FB6F894DEBFD2
:100B80000FBECDBF0E947C026FEF71E880EA90E05B
:100B90000E941B0281E00E9447022FEF31EE44E0E9
:100BA000215030404040E1F700C0000088E00E9442
:100BB000010280E060E00E944E0169961FAE6997D5
:100BC00031E0A5963FAFA5976B961FAE1EAE6B9713
:100BD000A4961FAE1EAEA4974FEF5FEF63965FAF74
:100BE0004EAF639766246D961FAE1EAE6D97A3E061
:100BF0007A2E53E064965FAF6497A1961CAE1DAE4B
:100C00001EAE1FAEA197222433242101A4968EADDF
:100C10009FADA4970196A4969FAF8EAFA497AAEE1E
:100C200080369A0721F4A4961FAE1EAEA4976D9647
:100C3000EEADFFAD6D973097E1F131966D96FFAF58
:100C4000EEAF6D9723E1E838F20751F480E00E949F
:100C5000010241E050E06D965FAF4EAF6D9729C045
:100C60006D968EAD9FAD6D97A9E0843C9A0709F50E
:100C7000662099F0B9E0B71548F081E090E0072CC4
:100C800002C0880F991F0A94E2F711C0EBE07E16AC
:100C900011F483E00CC08CE00AC081E090E064961F
:100CA0000FAC649702C0880F991F0A94E2F70E9464
:100CB00001020E94E6018C016B962EAD3FAD6B9751
:100CC0002115310509F03BC288709070662009F447
:100CD00029C1009701F181E090E0072C02C0880F44
:100CE000991F0A94E2F70E94010264967FAE64970E
:100CF000A1962CAE3DAE4EAE5FAEA19740ED57E053
:100D00006B965FAF4EAF6B978FEF9FEF63969FAF82
:100D10008EAF639723C002FF27C081E090E0649606
:100D20000FAC649702C0880F991F0A94E2F70E94E3
:100D3000010264967FAC6497A1962CAC3DAC4EAC9E
:100D40005FACA197A0EDB7E06B96BFAFAEAF6B976E
:100D5000EFEFFFEF6396FFAFEEAF639766246D96FC
:100D60001FAE1EAE6D9739C107FF5EC063962EADF4
:100D70003FAD63972330310559F12430310554F4E8
:100D800021303105D9F022303105ECF4211531053F
:100D900079F039C063964EAD5FAD6397453051052C
:100DA00029F145305105ECF04630510561F523C07D
:100DB0000894211C311C411C511C25C08AE090E084
:100DC000A0E0B0E009C024E630E040E050E017C009
:100DD00088EE93E0A0E0B0E0280E391E4A1E5B1EAC
:100DE00012C020E137E240E050E009C080EA96E816
:100DF000A1E0B0E0F1CF20E432E44FE050E0220E79
:100E0000331E441E551E31E8231636E9330638E9F1
:100E1000430630E053060CF0B5C040ED57E06B964A
:100E20005FAF4EAF6B97D7C004FF55C063968EADD2
:100E30009FAD63978330910551F1843091054CF457
:100E400081309105D1F082309105E4F4009779F07A
:100E50003BC06396AEADBFAD6397A530B10509F158
:100E6000A530B105CCF0A630B10571F523C00894CA
:100E7000210831084108510825C026EF3FEF4FEF08
:100E80005FEF13C08CE99FEFAFEFBFEF17C028E112
:100E90003CEF4FEF5FEF09C080EF98EDAFEFBFEF92
:100EA0000DC020E639E74EEF5FEF220E331E441EE1
:100EB000551E08C080EC9DEBA0EFBFEF280E391E39
:100EC0004A1E5B1E57FC6EC0A0EDB7E06B96BFAF2D
:100ED000AEAF6B9780C006FF0EC06396EEADFFAD60
:100EE0006397E630F1050CF069C031966396FFAF69
:100EF000EEAF63976AC005FF6EC063964EAD5FADFF
:100F000063974115510509F460C041505040639604
:100F10005FAF4EAF639780ED97E06B969FAF8EAF5C
:100F20006B9759C0009709F458C064969FAD6497B9
:100F3000933039F4A5E0B0E06396BFAFAEAF6397EE
:100F400006C0E1E0F0E06396FFAFEEAF639780E0AC
:100F50000E94010264967FAC6497A1962CAC3DACD4
:100F60004EAC5FACA19720ED37E06B963FAF2EAF54
:100F70006B976624639441E050E06D965FAF4EAF8F
:100F80006D972BC080ED97E06B969FAF8EAF6B9700
:100F900066246394F0E82F2EF6E93F2EF8E94F2EF1
:100FA000512C1BC0A0EDB7E06B96BFAFAEAF6B97F7
:100FB000662463942224332421010FC0E0EDF7E07E
:100FC0006B96FFAFEEAF6B9706C020ED37E06B96E8
:100FD0003FAF2EAF6B976624639401FF19C080E08A
:100FE0000E940102A1962CAC3DAC4EAC5FACA19727
:100FF00040ED57E06B965FAF4EAF6B9766246394FE
:1010000081E090E06D969FAF8EAF6D97EAE07E2E07
:1010100000FF19C080E00E940102A1962CAC3DACFB
:101020004EAC5FACA197A0EDB7E06B96BFAFAEAF93
:101030006B9766246394E1E0F0E06D96FFAFEEAF4E
:101040006D977BE0772E14FF1DC080E00E940102A7
:10105000A1962CAC3DAC4EAC5FACA19720ED37E037
:101060006B963FAF2EAF6B9763961FAE1EAE639726
:101070006624639441E050E06D965FAF4EAF6D978C
:1010800063E0762E15FF1DC080E00E940102A1964C
:101090002CAC3DAC4EAC5FACA19780ED97E06B966D
:1010A0009FAF8EAF6B9763961FAE1EAE639766249D
:1010B0006394A1E0B0E06D96BFAFAEAF6D9732E044
:1010C000732E16FF1DC080E00E940102A1962CAC79
:1010D0003DAC4EAC5FACA197E0EDF7E06B96FFAF97
:1010E000EEAF6B9763961FAE1EAE63976624639454
:1010F00021E030E06D963FAF2EAF6D97772473946B
:1011000017FF26C080E00E940102A1962CAC3DACE6
:101110004EAC5FACA19740ED57E06B965FAF4EAF22
:101120006B9763961FAE1EAE63976624639481E04F
:1011300090E06D969FAF8EAF6D97772409C06B9648
:10114000AEADBFAD6B9711976B96BFAFAEAF6B9760
:1011500080E00E9447026B017C016F3FBFEF7B077D
:10116000BFEF8B07BFEF9B0709F4F2C2862F0E94E7
:10117000A402182F8D2D0E94A402082F8E2D0E94EC
:10118000A402412F50E060E070E0762F652F542FCD
:101190004427400F511D611D711DCC24D42EE52E16
:1011A000F62EC80ED11CE11CF11C6496EFAD6497BD
:1011B000EA3089F4A596FFADA597F13051F46FEFB1
:1011C00071E882EA90E00E941B0222E0A5962FAF10
:1011D000A59710929E0097018601A5968FADA597C1
:1011E000823009F000C264969FAD6497E12F9A3077
:1011F00009F48CC0922F832F2C2D3E2F492F582F6E
:1012000060E070E080E090E0AA24BAE5BB2E12E630
:10121000C12E02E0D02EEE24FF2400E010E00E9458
:101220007604F9017A01262F2D5211E0261708F0D5
:1012300010E0020F31E0021708F030E0132B272FE7
:101240002253B1E0271708F0B0E0120F31E0121777
:1012500008F030E0B32B282F225031E0281708F097
:1012600030E0B20FA1E0B21708F0A0E0A32B91503C
:10127000A90F9F01A701B8018B2F9A2FA7FF32C09A
:10128000215031E02E1708F030E08F2F815041E0DF
:101290008F1708F040E0380F91E0381708F090E021
:1012A000492B8E2D815891E08E1508F090E0480F63
:1012B00051E0481708F050E0592B5F0D61E05F15D1
:1012C00008F060E0600F71E0601708F070E0710FE7
:1012D00081E0711708F080E08B0F91E08B1708F028
:1012E00090E09A0F07E10E94490520939F003093F8
:1012F000A0004093A1005093A2006093A3007093BC
:10130000A4008093A5009093A60058C1922F832F2C
:101310002C2D3E2F492F582F60E070E080E090E0A8
:10132000E0EAAE2EF5E2BF2EA6E2CA2EDD24EE24C0
:10133000FF2400E010E00E947604F901E42E252F3E
:10134000205D01E0251708F000E0F22E31E02217C1
:1013500008F030E0032B262F235111E0261708F068
:1013600010E0020F31E0021708F030E0132B272FB6
:101370002451B1E0271708F0B0E0120F31E0121746
:1013800008F030E0B32B282F215031E0281708F067
:1013900030E0B20FA1E0B21708F0A0E0A32B91500B
:1013A000A90F9F01A701B8018B2F9A2FA7FF32C069
:1013B000215031E02E1708F030E08F2F815041E0AE
:1013C0008F1708F040E0380F91E0381708F090E0F0
:1013D000492B8E2D815891E08E1508F090E0480F32
:1013E00051E0481708F050E0592B5F0D61E05F15A0
:1013F00008F060E0600F71E0601708F070E0710FB6
:1014000081E0711708F080E08B0F91E08B1708F0F6
:1014100090E09A0F07E10E94490520939F003093C6
:10142000A0004093A1005093A2006093A30070938A
:10143000A4008093A5009093A600A22EAA94E1E0B8
:10144000A21608F0E0E0A32FA150F1E0A31708F0E6
:10145000F0E0EA0FB1E0EA1708F0B0E0FB2BA42FB0
:10146000A15011E0A41708F010E0FA0FB1E0FA174C
:1014700008F0B0E01B2BA52FA150B1E0A51708F094
:10148000B0E0C12ECA0E11E0CA1608F010E0B12B70
:10149000A62FA15011E0A61708F010E0BA0F01E046
:1014A000BA1708F000E0102BA72FA15001E0A717F2
:1014B00008F000E01A0FFF24F3941A1708F0FF2435
:1014C0000F29A82FA150EE24E394A81708F0EE24CA
:1014D0000A0FFF24F3940A1708F0FF24FE28A92F0F
:1014E000A150FA0EA9F5002399F5112389F5BB2324
:1014F00079F5CC2069F5FE3058F5FD3039F4EC3B38
:1015000038F5EB3B19F4AEE9AA1510F16996BFADB9
:101510006997B73008F052C0BF5F6996BFAF69974F
:101520008B2F90E0A0E0B0E002E1880F991FAA1F86
:10153000BB1F0A95D1F781519C47AD45BF4FBC01F8
:10154000CD010E941B02EFE3FCE93197F1F734C0B3
:10155000992391F4882381F4772371F4662361F44D
:10156000552351F4453240F4443241F5303A20F4E9
:101570003F3921F5222311F16996FFAD6997FF23C9
:10158000E9F0F1506996FFAF69978F2F90E0A0E0E6
:10159000B0E012E1880F991FAA1FBB1F1A95D1F75F
:1015A00081519C47AD45BF4FBC01CD010E941B023C
:1015B0008FE39CE90197F1F700C0000080919E0045
:1015C0008A3009F0BBC06FEF71E880EA90E00E94BA
:1015D0001B0210929E0069961FAE699791E0A59636
:1015E0009FAFA597ABC0E12F922F832F2C2D3E2FBD
:1015F000492F582F60E070E080E090E000EAA02ED4
:10160000E5E2BE2EF6E2CF2EDD24EE24FF2400E03C
:1016100010E00E947604F901E42E252F205D01E000
:10162000251708F000E0F22E31E0221708F030E034
:10163000032B262F235111E0261708F010E0020F8C
:1016400031E0021708F030E0132B272F2451B1E0CE
:10165000271708F0B0E0120F31E0121708F030E061
:10166000B32B282F215031E0281708F030E0B20FBB
:10167000A1E0B21708F0A0E0A32B9150A90F9F01A1
:10168000A701B8018B2F9A2FA7FF32C0215031E05C
:101690002E1708F030E08F2F815041E08F1708F0AF
:1016A00040E0380F91E0381708F090E0492B8E2D7C
:1016B000815891E08E1508F090E0480F51E04817EE
:1016C00008F050E0592B5F0D61E05F1508F060E015
:1016D000600F71E0601708F070E0710F81E0711722
:1016E00008F080E08B0F91E08B1708F090E09A0FE4
:1016F00007E10E9449052093A7003093A80040937A
:10170000A9005093AA006093AB007093AC00809343
:10171000AD009093AE0081E080938C0080919E009C
:101720008A3061F46FEF71E882EA90E00E941B0258
:1017300010929E00A2E0A596AFAFA59780919E0063
:101740008F5F80939E001092B0001092AF0038C05F
:101750008091AF009091B00001969093B00080937B
:10176000AF00B3E188389B0758F16496EFAD6497FA
:10177000EA3031F51092B0001092AF006996FFADDB
:101780006997FF23E9F0F1506996FFAF69978F2FB2
:1017900090E0A0E0B0E012E1880F991FAA1FBB1FE4
:1017A0001A95D1F781519C47AD45BF4FBC01CD0182
:1017B0000E941B028FE39CE90197F1F700C0000033
:1017C000A4968EAD9FADA49764EF71E00E943A1489
:1017D000009709F0D7C50E94C500AFE3BFE111979C
:1017E000F1F700C00000BAE07B16D1F4E1E06E161C
:1017F00009F098C1CE01019660E670E00E94C21423
:101800008E010F5F1F4FF1E1FF2ED8018D918D01E9
:101810008A3009F4B7C50E94A900FA94B1F7B2C59D
:10182000BBE07B16D1F4E1E06E1609F07BC1CE017E
:1018300001966EE670E00E94C2148E010F5F1F4F8A
:10184000E1E1FE2ED8018D918D018A3009F49AC50F
:101850000E94A900FA94B1F795C5B9E0B71508F44C
:1018600061C1E1E07E1659F07E1638F0F2E07F1695
:1018700041F023E0721651F406C080E505C082E510
:1018800003C085E501C089E40E94A90083E70E94A6
:10189000A90085E60E94A90084E70E94A9008AE3C6
:1018A0000E94A90080E20E94A9004DB75EB748508F
:1018B00050400FB6F8945EBF0FBE4DBFEDB7FEB7F8
:1018C000319621E030E02C0F3D1FADB7BEB7129628
:1018D0003C932E9311974CE750E05383428324822C
:1018E0003582468257820E94C9148DB79EB70896EA
:1018F0000FB6F8949EBF0FBE8DBF91E0791629F008
:10190000A7E0A296AFAFA29704C0B4E0A296BFAF83
:10191000A297FE013196EE2481918A3021F0E39462
:101920002FE0E216C9F78E2C992463964EAD5FAD79
:10193000639748155905E4F051E07516C9F4C401E0
:10194000039797FF02C081E090E0FF2463960EADFD
:101950001FAD639702501040081B190B04C08FE5A0
:101960000E94A900F3948F2D90E080179107BCF39B
:10197000A2968FADA297E816A8F0A4968EAD9FAD63
:10198000A49760ED77E00E943A145C0110E09401A6
:10199000A2964FADA297241B310966963FAF2EAF9A
:1019A000669754C0A2965FADA297A52EBB24C50131
:1019B00001976396AEADBFAD6397A817B90771F4F1
:1019C000A4968EAD9FADA49760ED77E00E943A1487
:1019D000B1E0843F9B0710F480E201C080E30E94E5
:1019E000A9008EE20E94A900A4968EAD9FADA49797
:1019F00060ED77E00E943A1466969FAF8EAF6697CF
:101A000010E06501C818D9080894C108D108639688
:101A1000EEADFFAD6397AE1ABF0A12C00296A816CC
:101A2000B90651F466962EAD3FAD669741E0243F6E
:101A3000340710F480E201C080E30E94A9001F5F18
:101A4000812F90E08C159D054CF397CFC12EDD249E
:101A5000E1E0F0E0EC0FFD1FEC0DFD1D80818A3010
:101A600009F194012C193D09215030406396AEAD27
:101A7000BFAD6397A217B30731F4B4EFAB16B1E073
:101A8000BB0608F480E20E94A90066962EAD3FAD29
:101A90006697C216D30619F48EE20E94A9001F5F52
:101AA000E116A0F631E0731659F0731638F042E0F3
:101AB000741641F053E0751651F406C087E505C071
:101AC00084EF03C086E501C081E40E94A9000E9462
:101AD000D50081E0781661F0781640F092E0791632
:101AE00049F0A3E07A1609F04FC00FC080E50EC0A0
:101AF00082E50CC085E50E94A90089E60E94A90044
:101B00008EE60E94A90080E70AC089E40E94A9002D
:101B100081E60E94A90083E60E94A90084E70E9452
:101B2000A90032C06496BFAD6497BA3081F46620D4
:101B3000E9F486E50E94A90089E60E94A9008EE6E4
:101B40000E94A900E7E0A296EFAFA2971DC064969D
:101B5000FFAD6497FB3079F4662091F489E40E942C
:101B6000A90027E0A2962FAFA2970EC037E0A29659
:101B70003FAFA29709C047E0A2964FAFA29704C01B
:101B800057E0A2965FAFA2978AE30E94A90080E285
:101B90000E94A90080909F009090A000A090A100BA
:101BA000B090A200C090A300D090A400E090A50047
:101BB000F090A600F7FC06C064968FAD64978A305B
:101BC00069F529C064969FAD64979A3039F566200F
:101BD00049F58DE20E94A900ADB7BEB718970FB6C0
:101BE000F894BEBF0FBEADBFEDB7FEB7319621E092
:101BF00030E02C0F3D1F12963C932E9311974CE72B
:101C000050E05383428388279927DC01881999097A
:101C1000AA09BB0953C0662079F004C091E0691697
:101C200009F0E1C1A2E07A1609F0DDC16496BFAD0A
:101C30006497BA3009F004C26996EFAD6997E33052
:101C400009F488C0E43038F4E13009F441C0E230EE
:101C500008F05FC010C06996FFAD6997F53009F4D0
:101C6000A7C0F53008F494C0F63009F4F5C0F73099
:101C700009F0DFC247C12DB73EB7285030400FB63C
:101C8000F8943EBF0FBE2DBFEDB7FEB7319621E0F1
:101C900030E02C0F3D1FADB7BEB712963C932E938C
:101CA00011974CE750E053834283D501C40174E09F
:101CB000880F991FAA1FBB1F7A95D1F7848395833C
:101CC000A683B7830E94C9148DB79EB70896ACC28D
:101CD000ADB7BEB718970FB6F894BEBF0FBEADBF75
:101CE000EDB7FEB7319621E030E02C0F3D1F129684
:101CF0003C932E9311974CE750E053834283D501D8
:101D0000C40163E0880F991FAA1FBB1F6A95D1F712
:101D1000D5CFADB7BEB718970FB6F894BEBF0FBEFC
:101D2000ADBFEDB7FEB7319621E030E02C0F3D1F7F
:101D300012963C932E9311974CE750E053834283C5
:101D4000D501C40102E0880F991FAA1FBB1F0A9585
:101D5000D1F7B4CFADB7BEB718970FB6F894BEBFE2
:101D60000FBEADBFEDB7FEB7319621E030E02C0FCE
:101D70003D1F12963C932E9311974CE750E05383EE
:101D80004283D501C401880F991FAA1FBB1F96CF9C
:101D9000ADB7BEB718970FB6F894BEBF0FBEADBFB4
:101DA000EDB7FEB7319621E030E02C0F3D1F61C149
:101DB000ADB7BEB718970FB6F894BEBF0FBEADBF94
:101DC000EDB7FEB731966696FFAFEEAF6697E1E0EE
:101DD000F0E0EC0FFD1F1296FC93EE931197ECE7E9
:101DE000F0E06696AEADBFAD66971396FC93EE93AA
:101DF00012979401A501B601C70197FF2BC0E82CEB
:101E0000E394E1E0E81408F0E0E0FE2EF30E01E0D8
:101E1000F31608F000E0040F11E0041708F010E0DA
:101E2000150FB1E0151708F0B0E0B60FA1E0B61736
:101E300008F0A0E0A70FF1E0A71708F0F0E0F80F16
:101E4000E1E0F81708F0E0E09701A8016B2F7A2F86
:101E50008F2F9E0F01E0ABC02DB73EB7285030400A
:101E60000FB6F8943EBF0FBE2DBF4DB75EB74F5FA4
:101E70005F4F66965FAF4EAF6697E1E0F0E0EC0F24
:101E8000FD1FADB7BEB71296FC93EE931197ECE72A
:101E9000F0E0DA011396FC93EE9312979401A501FA
:101EA000B601C70197FF2CC0A3E0EA2EE80CE1E0E1
:101EB000E81408F0E0E0FE2EF30E01E0F31608F05F
:101EC00000E0040F11E0041708F010E0150FB1E076
:101ED000151708F0B0E0B60FA1E0B61708F0A0E0C3
:101EE000A70FF1E0A71708F0F0E0F80FE1E0F8170E
:101EF00008F0E0E09701A8016B2F7A2F8F2F9E0F3B
:101F000002E055C02DB73EB7285030400FB6F894C8
:101F10003EBF0FBE2DBF4DB75EB74F5F5F4F66969A
:101F20005FAF4EAF6697E1E0F0E0EC0FFD1FADB79D
:101F3000BEB71296FC93EE931197ECE7F0E0DA014E
:101F40001396FC93EE9312979401A501B601C70175
:101F500097FF2CC0F7E0EF2EE80CE1E0E81408F062
:101F6000E0E0FE2EF30E01E0F31608F000E0040FAF
:101F700011E0041708F010E0150FB1E0151708F094
:101F8000B0E0B60FA1E0B61708F0A0E0A70FF1E0AF
:101F9000A71708F0F0E0F80FE1E0F81708F0E0E02C
:101FA0009701A8016B2F7A2F8F2F9E0F03E00E94BD
:101FB00049056696AEADBFAD669714962C931497FF
:101FC00015963C93159716964C93169717965C9317
:101FD0000E94C914EDB7FEB738960FB6F894FEBF4D
:101FE0000FBEEDBF26C1F3E07F1639F56091A70063
:101FF0007091A8008091A9009091AA000E94C0024F
:10200000DC01CB012DB73EB7285030400FB6F89415
:102010003EBF0FBE2DBF4DB75EB74F5F5F4F21E094
:1020200030E02C0F3D1FEDB7FEB7328321832CE744
:1020300030E0FA0133832283C1C032E0731631F5F8
:10204000662031F064964FAD64974A3009F4F1C0D0
:102050008DB79EB708970FB6F8949EBF0FBE8DBF81
:10206000EDB7FEB7319621E030E02C0F3D1FADB744
:10207000BEB712963C932E9311974CE750E05383D2
:10208000428384829582A682B7821CCE91E0791623
:1020900009F046C06091A7007091A8008091A90046
:1020A0009091AA000E94C00268966CAF7DAF8EAF7F
:1020B0009FAF6897ADB7BEB718970FB6F894BEBF7D
:1020C0000FBEADBF0DB71EB70F5F1F4FE1E0F0E0D1
:1020D000EC0FFD1F1296FC93EE931197ECE7F0E0E6
:1020E000D8011396FC93EE9312979401A501B601C3
:1020F000C7010E94D8126B017C0168966CAD7DAD62
:102100008EAD9FAD68970E94DE129B01AC01C701A6
:10211000B6010E943F1220E030E04AE754E447C095
:10212000772009F05BC06091A7007091A8008091B2
:10213000A9009091AA000E94C0024DB75EB7485016
:1021400050400FB6F8945EBF0FBE4DBF0DB71EB71F
:102150000F5F1F4FE1E0F0E0EC0FFD1FADB7BEB722
:102160001296FC93EE931197ECE7F0E0D8011396EA
:10217000FC93EE9312970E94DE1220E034E244E7D3
:1021800059E40E943F1268966CAF7DAF8EAF9FAF4F
:1021900068979401A501B601C7010E94D8129B015E
:1021A000AC0168966CAD7DAD8EAD9FAD68970E9419
:1021B000B8130E94A712DC01CB01F8018483958338
:1021C000A683B7830E94C9142DB73EB7285F3F4F3F
:1021D0000FB6F8943EBF0FBE2DBF2BC064963FAD27
:1021E00064973B3031F5662021F500D000D000D057
:1021F000EDB7FEB7319621E030E02C0F3D1FADB7B3
:10220000BEB712963C932E93119741E850E053834A
:10221000428380918D0090918E00958384830E94EB
:10222000C9148DB79EB706960FB6F8949EBF0FBE21
:102230008DBF4E010894811C911CF401FF248191F3
:102240008A3031F4A2969FADA297F91670F004C0BF
:10225000F394AFE0FA1699F710E0CF2CDD24A296A4
:10226000BFADA297CB1AD1081BC080E30E94A90082
:102270008EE20E94A900EE24A296EFADA2970E2F47
:1022800010E00F1911090150104004C080E30E94B2
:10229000A900E3948E2D90E080179107BCF3DCCF6A
:1022A000A12EBB24E1E0F0E0EC0FFD1FEA0DFB1DC9
:1022B00080818A3059F00E94A900AC14BD0419F441
:1022C0008EE20E94A9001F5FF11650F7772011F4EB
:1022D00087E504C0F1E07F1619F484EF0E94A9009D
:1022E00064962FAD64972A3011F4662019F032E01D
:1022F000731611F486E50BC064964FAD64974B30AE
:1023000011F4662019F053E0751619F481E40E9467
:10231000A90064968FAD64978A30A1F5662009F014
:102320009BC00E94D50000D000D000D0EDB7FEB712
:10233000319621E030E02C0F3D1FADB7BEB71296AD
:102340003C932E93119745E850E05383428369965E
:102350005FAD6997548315820E94C9148DB79EB7EB
:1023600006960FB6F8949EBF0FBE8DBF18E0D4013D
:102370008D914D018A3009F46FC00E94A90011505F
:10238000B1F76AC06496BFAD6497B23009F448C033
:10239000B33038F4BB2381F0B13011F00C94060651
:1023A00025C06496EFAD6497E33009F443C0EA308A
:1023B00011F00C94060650C02091A7003091A8009F
:1023C0004091A9005091AA00E0909F00F090A000D9
:1023D0000091A1001091A200A1966CAD7DAD8EADD3
:1023E0009FADA1970E9468030C9406062091A70058
:1023F0003091A8004091A9005091AA00E0909F0060
:10240000F090A0000091A1001091A200A1966CADE7
:102410007DAD8EAD9FADA1970E949D030C940606E5
:10242000A1966CAD7DAD8EAD9FADA1970E94E003EE
:102430000C9406062091A7003091A8004091A900B5
:102440005091AA00A1966CAD7DAD8EAD9FADA197C8
:102450000E94EC020C9406062091A7003091A8007F
:102460004091A9005091AA0060E070E0CB010E9469
:10247000EC02FAE06496FFAF64970C9406060CD069
:102480003DC135D140F02CD130F021F45F3F19F03F
:102490000EC1511167C111C142D198F39923C9F3FB
:1024A0005523B1F3951B550BBB27AA27621773075A
:1024B000840738F09F5F5F4F220F331F441FAA1F0E
:1024C000A9F333D00E2E3AF0E0E830D091505040CE
:1024D000E695001CCAF729D0FE2F27D0660F771F7C
:1024E000881FBB1F261737074807AB07B0E809F05E
:1024F000BB0B802DBF01FF2793585F4F2AF09E3FF3
:10250000510568F0D4C02EC15F3FECF3983EDCF378
:10251000869577956795B795F7959F5FC9F7880F6B
:10252000911D9695879597F90895E1E0660F771FBD
:10253000881FBB1F621773078407BA0720F0621B4E
:10254000730B840BBA0BEE1F88F7E095089504D047
:102550006894B11107C10895EAD088F09F5790F0B0
:10256000B92F9927B751A0F0D1F0660F771F881FB8
:10257000991F1AF0BA95C9F712C0B13081F0F1D0A5
:10258000B1E00895EEC0672F782F8827B85F39F043
:10259000B93FCCF3869577956795B395D9F73EF417
:1025A00090958095709561957F4F8F4F9F4F0895BF
:1025B00097FB0EF485D03EC0E89409C097FB3EF42B
:1025C00090958095709561957F4F8F4F9F4F992380
:1025D000A9F0F92F96E9BB279395F69587957795FE
:1025E0006795B795F111F8CFFAF4BB0F11F460FFBE
:1025F0001BC06F5F7F4F8F4F9F4F16C0882311F016
:1026000096E911C0772321F09EE8872F762F05C029
:10261000662371F096E8862F70E060E02AF09A95C4
:10262000660F771F881FDAF7880F9695879597F9B9
:102630000895E894F92F96EBFF2381F01216130604
:102640001406440B9395F69587957795679557955E
:102650004040FF23B9F71BC099270895882351F400
:102660009850D2F7872B762F652F542F432F322F78
:1026700020E0B1F3121613061406440B88233AF037
:102680009A95440F551F661F771F881FCAF7552359
:102690004AF4440F551F11F460FF04C06F5F7F4F71
:1026A0008F4F9F4F880F9695879597F9089597F9C3
:1026B0009F6780E870E060E008959FEF80EC0895E8
:1026C00090958095709560955095409530952195A1
:1026D0003F4F4F4F5F4F6F4F7F4F8F4F9F4F08952B
:1026E00000240A94161617061806090608950024F1
:1026F0000A9412161306140605060895092E03946B
:10270000000C11F4882352F0BB0F40F4BF2B11F4DE
:1027100060FF04C06F5F7F4F8F4F9F4F089557FD3D
:102720009058440F551F59F05F3F71F04795880F3F
:1027300097FB991F61F09F3F79F0879508951216D6
:1027400013061406551FF2CF4695F1DF08C0161682
:1027500017061806991FF1CF869571056105089433
:102760000895E894BB2766277727CB0197F908954A
:102770000BD0C4CFB5DF28F0BADF18F0952309F0ED
:1027800096CF9BCF1124EECFCADFA0F3959FD1F354
:10279000950F50E0551F629FF001729FBB27F00D0F
:1027A000B11D639FAA27F00DB11DAA1F649F662764
:1027B000B00DA11D661F829F2227B00DA11D621FB3
:1027C000739FB00DA11D621F839FA00D611D221F6D
:1027D000749F3327A00D611D231F849F600D211D51
:1027E000822F762F6A2F11249F5750408AF0E1F0F4
:1027F00088234AF0EE0FFF1FBB1F661F771F881F3D
:1028000091505040A9F79E3F510570F050CFAACF8C
:102810005F3FECF3983EDCF3869577956795B79527
:10282000F795E7959F5FC1F7FE2B880F911D969551
:10283000879597F90895629FD001739FF001829F59
:10284000E00DF11D649FE00DF11D929FF00D839F3F
:10285000F00D749FF00D659FF00D9927729FB00DDC
:10286000E11DF91F639FB00DE11DF91FBD01CF01EF
:1028700011240895AA1BBB1B51E107C0AA1FBB1F4F
:10288000A617B70710F0A61BB70B881F991F5A95FC
:10289000A9F780959095BC01CD01089597FB092E6D
:1028A00005260ED057FD04D014D00AD0001C38F4F1
:1028B00050954095309521953F4F4F4F5F4F08956C
:1028C000F6F790958095709561957F4F8F4F9F4F4C
:1028D0000895A1E21A2EAA1BBB1BFD010DC0AA1F61
:1028E000BB1FEE1FFF1FA217B307E407F50720F079
:1028F000A21BB30BE40BF50B661F771F881F991FF4
:102900001A9469F760957095809590959B01AC013C
:10291000BD01CF0108952F923F924F925F926F9227
:102920007F928F929F92AF92BF92CF92DF92EF925F
:10293000FF920F931F93CF93DF93CDB7DEB7CA1BE0
:10294000DB0B0FB6F894DEBF0FBECDBF09942A880B
:10295000398848885F846E847D848C849B84AA84B3
:10296000B984C884DF80EE80FD800C811B81AA8140
:10297000B981CE0FD11D0FB6F894DEBF0FBECDBF0B
:10298000ED010895FB01DC0101900D920020E1F7BB
:102990000895AEE0B0E0EFECF4E10C9499140D89E9
:1029A0001E8986E08C831A8309838FEF9FE79E83BD
:1029B0008D83AE01475E5F4FCE0101966F89788DA2
:1029C0000E94EB14EF81F885E00FF11F10822E9624
:1029D000E4E00C94B514ADE0B0E0E1EFF4E10C9468
:1029E0008B143C017D876C875A01FC01178216828B
:1029F000838181FFC8C12E010894411C511CF30141
:102A00009381EC85FD8593FD859193FF8191FD87F1
:102A1000EC87882309F4B3C1853241F493FD859195
:102A200093FF8191FD87EC87853229F490E0B30113
:102A30000E94DF16E4CFFF24EE2410E01032B0F441
:102A40008B3269F08C3228F4803251F0833271F489
:102A50000BC08D3239F0803349F411602CC0126004
:102A6000146029C0186027C0106125C017FD2EC052
:102A7000282F20532A3098F416FF08C08F2D880F76
:102A8000F82EFF0CFF0CF80EF20E15C08E2D880FDD
:102A9000E82EEE0CEE0CE80EE20E10620CC08E3248
:102AA00021F416FD6CC1106406C08C3611F4106858
:102AB00002C0883659F4EC85FD8593FD859193FF1E
:102AC0008191FD87EC87882309F0B8CF982F955422
:102AD000933018F09052933038F424E030E0A20E96
:102AE000B31E3FE339830FC0833631F0833781F063
:102AF000833509F05AC022C0F5018081898322E024
:102B000030E0A20EB31E21E0C22ED12C420114C02F
:102B100092E0292E312C2A0C3B1CF50180809180FB
:102B200016FF03C06F2D70E002C06FEF7FEFC4018E
:102B30000E94D4166C0151011F7715C082E0282E27
:102B4000312C2A0C3B1CF5018080918016FF03C0BC
:102B50006F2D70E002C06FEF7FEFC4010E94C916B5
:102B60006C011068510113FD1CC006C080E290E0AA
:102B7000B3010E94DF16EA948E2D90E0C816D906A4
:102B8000A8F30FC0F40117FD859117FF81914F0144
:102B900090E0B3010E94DF16E110EA940894C108A6
:102BA000D108C114D10471F7E7C0843611F0893619
:102BB00051F5F50117FF07C080819181A281B38192
:102BC00024E030E008C080819181AA2797FDA0957C
:102BD000BA2F22E030E0A20EB31E012F0F76B7FF0E
:102BE00008C0B095A095909581959F4FAF4FBF4F6E
:102BF0000068BC01CD01A2012AE030E00E940B1761
:102C0000D82ED4183FC0853721F41F7E2AE030E04B
:102C100020C0197F8F36A9F0803720F4883509F05D
:102C2000AEC00BC0803721F0883709F0A8C001C0C2
:102C3000106114FF09C0146007C014FF08C01660BB
:102C400006C028E030E005C020E130E002C020E10D
:102C500032E0F50117FF07C06081718182819381A5
:102C600044E050E006C06081718180E090E042E085
:102C700050E0A40EB51EA2010E940B17D82ED41846
:102C8000012F0F7706FF09C00E7FDF1430F404FF19
:102C900006C002FD04C00F7E02C01D2D01C01F2D05
:102CA000802F90E004FF0CC0FE01ED0DF11D20818E
:102CB000203311F4097E09C002FF06C01E5F05C063
:102CC00086789070009709F01F5F802E992403FD8D
:102CD00012C000FF0DC0FD2C1E1550F4FE0CF11AA1
:102CE0001E2D06C080E290E0B3010E94DF161F5F38
:102CF0001E15C0F304C01E1510F4E11A01C0EE2425
:102D000084FE0FC080E390E0B3010E94DF1682FED4
:102D10001FC081FE03C088E590E010C088E790E006
:102D20000DC0C40186789070009791F081FC02C0BC
:102D300080E201C08BE207FD8DE290E0B3010E94CA
:102D4000DF1606C080E390E0B3010E94DF16FA941C
:102D5000DF14C0F3DA94F201ED0DF11D808190E0F3
:102D6000B3010E94DF16DD20A9F706C080E290E0E3
:102D7000B3010E94DF16EA94EE20C1F740CEF301C2
:102D80008681978102C08FEF9FEF2D96E2E10C9430
:102D9000A714FC010590615070400110D8F7809590
:102DA00090958E0F9F1F0895FC0161507040019017
:102DB0000110D8F7809590958E0F9F1F08950F935F
:102DC0001F93CF93DF938C01EB018B8181FF1BC09D
:102DD00082FF0DC02E813F818C819D81281739078C
:102DE00064F4E881F9810193F983E88306C0E885FA
:102DF000F985802F0995009731F48E819F81019686
:102E00009F838E8302C00FEF1FEFC801DF91CF9128
:102E10001F910F910895FA01AA27283051F120310E
:102E200081F1E8946F936E7F6E5F7F4F8F4F9F4F5E
:102E3000AF4FB1E03ED0B4E03CD0670F781F891FA0
:102E40009A1FA11D680F791F8A1F911DA11D6A0F6E
:102E5000711D811D911DA11D20D009F468943F9121
:102E60002AE0269F11243019305D3193DEF6CF0120
:102E70000895462F4770405D4193B3E00FD0C9F7E6
:102E8000F6CF462F4F70405D4A3318F0495D31FD53
:102E90004052419302D0A9F7EACFB4E0A6959795A6
:102EA000879577956795BA95C9F70097610571057C
:102EB00008959B01AC010A2E0694579547953795C6
:102EC0002795BA95C9F7620F731F841F951FA01D20
:062ED0000895F894FFCF05
:102ED600566F6C74616765206D6F64650A00437593
:102EE6007272656E74206D6F64650A00256C640AE3
:0C2EF6000025640A00473A2025640A0009
:00000001FF
