:1000000012C02CC02BC02AC029C028C027C026C0BF
:1000100025C024C023C022C021C020C01FC01EC0D4
:100020001DC01CC01BC011241FBECFE5D4E0DEBF25
:10003000CDBF10E0A0E6B0E0E4EBF7E002C0059031
:100040000D92A036B107D9F710E0A0E6B0E001C0EC
:100050001D92A036B107E1F7FCD1AAC3D1CF84B37A
:100060008F6084BB85B3836085BBB89AC09881B329
:10007000806E81BB82B38F7182BB81B38C6181BB87
:1000800082B3837E82BB87B38E6787BB88B3817858
:1000900088BBA59AA498BF9A3BD0AB9A08950097C5
:1000A00061F08130910569F02FEF8F3F920769F47D
:1000B00082B38C6082BB9498089582B3837E82BBA6
:1000C000089582B3846182BB93980895A99A882386
:1000D00011F0AA9A01C0AA98A998A99A089527E0B0
:1000E00030E090E0A99AAC01022E02C055954795E8
:1000F0000A94E2F740FF02C0AA9A01C0AA98A99800
:10010000215030404FEF2F3F340761F7A99A0895EF
:10011000CF93DF93AB98C6E0D0E080E0E0DF21979B
:10012000E1F7AB9A8FEF9FEFBADF83ED90E3019792
:10013000F1F700C0000081E0C9DFC0E3D0E083EF49
:1001400091E00197F1F700C0000080E0BFDF219748
:10015000B1F783EF91E00197F1F700C0000080E074
:1001600090E09DDFDF91CF9108950F931F9383302F
:10017000B9F0843028F4813039F1823039F40BC081
:100180008530C1F0853088F08630C9F001E010E09C
:1001900020E030E01DC004E610E020E030E018C0B0
:1001A00008EE13E020E030E013C000E117E220E0A9
:1001B00030E00EC000EA16E821E030E009C000E4BB
:1001C00012E42FE030E004C00AE010E020E030E06C
:1001D000602F712F822F932F1F910F91089591E01F
:1001E00080FD90E0883068F4863010F0905D09C0A2
:1001F000843010F0985D05C0823010F09C5D01C025
:100200009E5D892F08956F927F928F929F92AF92F9
:10021000BF92CF92DF92EF92FF920F931F93CF93F3
:10022000DF936B017C0174DF81E090E038DF81EEC9
:1002300094E00197F1F700C00000C701B60124E681
:1002400030E040E050E077D249015A0104E010E08C
:100250000F2EF9E06F2E7724F02DAB98E30180E0AC
:100260003EDF2197E1F7802F8E5F7FDF9B01AC019E
:10027000C501B40160D26B017C01802F8F5F75DFF7
:100280009B01AC01C701B60156D2822FA8DF27DF40
:10029000E80111233CF080E022DF21979FEFCF3F60
:1002A000D907C9F7AB9A83EF91E00197F1F700C046
:1002B0000000015010409FEF0E3F190771F680E0DB
:1002C00090E0EDDEAB98AB9ADF91CF911F910F914B
:1002D000FF90EF90DF90CF90BF90AF909F908F9066
:1002E0007F906F900895CF92DF92EF92FF920F93DD
:1002F0001F93CF93DF938C016A017B0188B38178D0
:1003000088BBC0E3D0E080E0E1DE2197E1F7AB9A63
:100310000230110571F10330110544F40115110586
:1003200081F00130110509F05CC015C004301105E1
:10033000E1F1043011055CF10530110509F051C0FF
:1003400042C0C701B6012AE030E040E050E015D2DB
:10035000262FC49A47C0C701B60124E630E040E02A
:1003600050E00BD22AE030E040E050E006D2C59ADF
:1003700039C0C701B60128EE33E040E050E0FDD1BE
:1003800024E630E040E050E0F8D1C69A2BC0C70127
:10039000B60120E137E240E050E0EFD128EE33E053
:1003A00040E050E0EAD1C39A1DC0C701B60120EA7F
:1003B00036E841E050E0E1D120E137E240E050E0B2
:1003C000DCD1C29A0FC0C701B60120E432E44FE08D
:1003D00050E0D3D120EA36E841E050E0CED1C19AD6
:1003E00001C020E020FF02C0959A01C0959821FF2E
:1003F00002C0979A01C0979822FF02C0C09A01C01C
:10040000C09823FF02C0969A01C09698DF91CF91C1
:100410001F910F91FF90EF90DF90CF900895C79AB2
:1004200020E030E080E061E070E0AD989C9908C089
:10043000AB01022E02C0440F551F0A94E2F7840F4D
:10044000AD9A2F5F3F4F2830310579F7C7988F78E5
:10045000089505DE87EA91E60197F1F700C00000F4
:1004600057DEA7EAB1E61197F1F700C00000CC24EF
:10047000DD2400E010E0EE24EA94FE2CC0E0D0E0A1
:100480008824992454010F2EF5E02F2E3324F02DCB
:100490000F2EFFE34F2EF2E45F2EFFE06F2EF0E011
:1004A0007F2EF02D02C000E010E080E090E0F7DD4C
:1004B000CE15DF0539F40233110524F488B3817CAD
:1004C00088BB04C0CE01B501A4010DDFA8DFC114B3
:1004D000D10409F0F2C0BFEFEB16BFEFFB0609F441
:1004E000E9C088230CF059C082E0E816F10449F114
:1004F00093E0E916F1044CF4E114F10499F0A1E061
:10050000EA16F10409F040C013C0B4E0EB16F104A0
:1005100051F184E0E816F104ECF095E0E916F104FD
:1005200099F52AC0089481089108A108B1082CC047
:1005300086EF9FEFAFEFBFEF880E991EAA1EBB1E7E
:1005400023C08CE99FEFAFEFBFEF880E991EAA1E64
:10055000BB1E1AC088E19CEFAFEFBFEF880E991E5B
:10056000AA1EBB1E11C080EF98EDAFEFBFEF880E43
:10057000991EAA1EBB1E08C080E699E7AEEFBFEF2A
:10058000880E991EAA1EBB1EBB200CF49AC00F2E0B
:10059000F2E3CF2EDD24F02DBBC082FF60C092E0DD
:1005A000E916F10449F1A3E0EA16F1044CF4E11470
:1005B000F10499F0B1E0EB16F10409F040C013C06A
:1005C00084E0E816F10451F194E0E916F104ECF04E
:1005D000A5E0EA16F10499F52AC00894811C911C43
:1005E000A11CB11C2CC08AE090E0A0E0B0E0880E15
:1005F000991EAA1EBB1E23C084E690E0A0E0B0E0D6
:10060000880E991EAA1EBB1E1AC088EE93E0A0E0B9
:10061000B0E0880E991EAA1EBB1E11C080E197E2B1
:10062000A0E0B0E0880E991EAA1EBB1E08C080EA9A
:1006300096E8A1E0B0E0880E991EAA1EBB1E90E4C9
:10064000891692E499069FE0A90690E0B9060CF09D
:1006500041C00F2EF2E3CF2EDD24F02D59C080FFD4
:100660000DC0A5E0EA16F104E9F10894E11CF11CC3
:100670000F2EF2E3CF2EDD24F02D4AC081FF0CC0F7
:10068000E114F104B9F10894E108F1080F2EF2E346
:10069000CF2EDD24F02D3CC083FF3AC0C501B4014C
:1006A000B2DD0F2EF2E3CF2EDD24F02DEE24EA94FE
:1006B000FE2C2EC083FD25C02BC00894C108D10894
:1006C00027C00F2EF2E3CF2EDD24F02D88249924AD
:1006D00054011EC00F2EF2E3CF2EDD24F02D530166
:1006E000420116C00F2EF2E3CF2EDD24F02DEE24B2
:1006F000FF240EC00F2EF2E3CF2EDD24F02D71016A
:1007000007C00F2EF2E3CF2EDD24F02DEE24FF24C0
:1007100089EF90E00197F1F700C000002196C63004
:10072000D10511F4C0E0D0E00F5F1F4F0436110572
:1007300009F0BBCEB8CEA1E21A2EAA1BBB1BFD014D
:100740000DC0AA1FBB1FEE1FFF1FA217B307E407B0
:10075000F50720F0A21BB30BE40BF50B661F771F08
:10076000881F991F1A9469F76095709580959095E8
:100770009B01AC01BD01CF01089597FB092E052611
:100780000ED057FD04D0D7DF0AD0001C38F45095A6
:100790004095309521953F4F4F4F5F4F0895F6F7A5
:1007A00090958095709561957F4F8F4F9F4F0895DD
:0407B000F894FFCFEB
:00000001FF
