:100000000C942A000C94E9030C9447000C944700CC
:100010000C9447000C9447000C9447000C94470044
:100020000C9447000C943D030C9447000C942C0452
:100030000C9459040C9447000C9447000C9447000E
:100040000C9447000C9447000C9447000C94470014
:100050000C94470011241FBECFE5D4E0DEBFCDBF16
:1000600010E0A0E6B0E0EEE7F2E102C005900D92EC
:10007000A437B107D9F710E0A4E7B0E001C01D92A2
:10008000A03CB107E1F70E9463010C943D090C9478
:10009000000011B88CE080B9089594EA96BF06B6C6
:1000A00007FEFDCF91B1987F983011F0903179F42F
:1000B00083B984E886BF06B607FEFDCF91B1987F6D
:1000C000983139F081E0903429F480E0089581E09E
:1000D000089580E0089524EA34E844E926BF06B68E
:1000E00007FEFDCF91B1987F983011F09031B1F7B4
:1000F00083B936BF06B607FEFDCF91B1987F903227
:1001000011F0983529F446BF06B604FCFDCFE6CFC2
:1001100008950E944D00089584E986BF06B604FC48
:10012000FDCF089583B984E886BF06B607FEFDCFEC
:1001300091B1987F81E0983209F480E0089584ECD1
:1001400086BF06B607FEFDCF83B1089584E886BF5B
:1001500006B607FEFDCF83B10895CF93C82F80EC7C
:100160000E944D00882321F00E948C00C0E00BC04B
:100170008C2F0E94920081EC0E9489000E94A600B0
:10018000C82F0E948C008C2FCF910895CF93DF93BE
:10019000C82FD92F80EC0E944D00882321F00E94A7
:1001A0008C0080E01CC08AE00E9492008FEF0E94C9
:1001B000920080E30E94920080E00E9492008D2FC6
:1001C0008F700E9492008C2F0E94920080E30E9408
:1001D000920080E00E9492000E948C0081E0DF91FA
:1001E000CF910895A39AA49AA59AA69AB89AB99A73
:1001F000BA9ABB9ABC98BD98C49AC59A87E690E013
:100200000E947F0483B7836083BF89B7816089BF01
:1002100012BE85B7826085BF85B78E7F85BF8BB7DD
:1002200080648BBF8C988B983E9A3F98389A399807
:100230003A9A379A309A319A329A78940E944900C1
:1002400080EC0E944D00882329F00E948C008EE6ED
:100250000E94AE04089521E030E0082E02C0220F73
:10026000331F0A94E2F7722F20E030E0E1E0F0E083
:10027000821721F498B3972B98BB0BC098B3AF01AA
:10028000022E02C0440F551F0A94E2F740954923FD
:1002900048BB2F5F3F4F2430310551F760FF02C04C
:1002A000AE9A01C0AE9861FF02C0AC9A01C0AC9892
:1002B00062FF02C0AB9A01C0AB9863FF02C0AD9A67
:1002C0000895AD980895CF93DF93CDB7DEB7AE977D
:1002D0000FB6F894DEBF0FBECDBF0E94F20082E6DB
:1002E0000E94AE041092790010927800369ACC24C5
:1002F000DD24882499245401662477244424552439
:100300001E010894211C311C20E329A735E73AA7D8
:10031000369954C00894611C711C84B195B1A0E059
:10032000B0E0880E991EAA1EBB1E86E068167104F6
:1003300009F041C0C501B40126E030E040E050E0E2
:100340000E942906CA01B9016D5F7F4F8F4F9F4FF1
:100350000E94130520E030E04AEF53E40E94770545
:1003600020E030E040EA50E40E9477050E94E0047B
:1003700020E034E040E050E00E94290680917600C1
:100380009091770003968217930740F08091760052
:100390009091770003972817390748F43093770036
:1003A00020937600882499245401320104C08824C3
:1003B00099245401320115B814B8369A8091780006
:1003C0009091790061E070E00E94C6000E94930461
:1003D0008136910549F5809176009091770000D0A3
:1003E00000D000D0EDB7FEB7319625E130E02C0FFC
:1003F0003D1FADB7BEB712963C932E931197A0E662
:10040000B0E0B383A283958384830E946606EDB730
:10041000FEB736960FB6F894FEBF0FBEEDBFCE0105
:1004200045960E94BF049BC08F36910589F5809147
:1004300078009091790000D000D000D0EDB7FEB7E1
:10044000319625E130E02C0F3D1FADB7BEB71296B7
:100450003C932E931197A0E6B0E0B383A2839C0156
:10046000220F331F220F331F820F931F8D96958308
:1004700084830E946606EDB7FEB736960FB6F894F1
:10048000FEBF0FBEEDBFCE0145960E94BF0467C000
:100490008936910509F063C05A8249825C824B8299
:1004A00080E395E700000197E9F7810172010E945E
:1004B0009304D8018D939D938D0190FD0CC089A567
:1004C0009AA500000197E9F70894E11CF11CB2E03D
:1004D000EB16F10461F70B811C8100D000D000D035
:1004E000EDB7FEB7319625E130E02C0F3D1FADB7DB
:1004F000BEB712963C932E93119780E690E09383BB
:10050000828399819CA71BA68BA59CA5800F911F18
:10051000958384830E946606ADB7BEB716960FB664
:10052000F894BEBF0FBEADBFCE0145960E94BF047A
:10053000B981BEA71DA68DA59EA5800F911F8D9781
:1005400065E070E00E94160677232CF07093790026
:100550006093780004C05092790040927800C114F2
:10056000D10409F083C0B49985C080917200909144
:100570007300E3E0883E9E0798F4809172009091AA
:1005800073009C01220F331F880F991F880F991F3A
:10059000880F991F820F931F9093730080937200AE
:1005A000809172009091730000D000D000D0EDB720
:1005B000FEB73196ADB7BEB712963C922E92119708
:1005C00024E630E033832283958384830E94660689
:1005D0008DB79EB706960FB6F8949EBF0FBE8DBF1F
:1005E000C1010E94BF040F2EF8EECF2EF3E0DF2EE4
:1005F000F02D3CC080917200909173008230910583
:1006000060F080917200909173006AE070E00E9447
:100610000206709373006093720080917200909153
:10062000730000D000D000D0EDB7FEB73196ADB763
:10063000BEB712963C922E9211972BE630E0338390
:100640002283958384830E9466068DB79EB70696A3
:100650000FB6F8949EBF0FBE8DBFC1010E94BF04AC
:100660000F2EF8EECF2EF3E0DF2EF02D0894C10808
:10067000D1084ECEB59BBECF4BCE1F920F920FB678
:100680000F9211242F933F934F935F936F937F9318
:100690008F939F93AF93BF93CF93DF93EF93FF938A
:1006A0008091BF00882359F08091BF008F5F8093B5
:1006B000BF008091BF008A3011F41092BF00C0913A
:1006C0007600D0917700809175008823C1F4CE0127
:1006D00060E177E20E94020668EE73E00E94020683
:1006E000662331F0809175000E942B0190E008C0D4
:1006F000809175008F5F8093750091E001C090E05C
:1007000080917500813031F59923B1F0CE0168EE0A
:1007100073E00E94020664E670E00E94020666230F
:1007200029F0809175000E942B0114C08091750002
:100730008F5F809375000EC040917500CE0168EE0A
:1007400073E00E94020664E670E00E940206842FB5
:100750000E942B0180917500823071F440917500E8
:10076000CE0164E670E00E9402066AE070E00E943A
:100770000206842F0E942B0180917500833059F46A
:1007800020917500CE016AE070E00E940206682F99
:10079000822F0E942B01809175008F5F80937500DE
:1007A00080917500843011F410927500FF91EF91E3
:1007B000DF91CF91BF91AF919F918F917F916F9179
:1007C0005F914F913F912F910F900FBE0F901F900F
:1007D00018951F920F920FB60F9211242F933F93EB
:1007E0008F939F938091BF00882351F5849B0FC006
:1007F000209178003091790080917200909173007F
:10080000820F931F909379008093780019C02091F4
:1008100078003091790080917200909173002817D0
:10082000390770F0809178009091790020917200E2
:1008300030917300821B930B909379008093780022
:1008400081E08093BF009F918F913F912F910F90F6
:100850000FBE0F901F9018951F920F920FB60F9218
:1008600011242F933F938F939F93EF93FF933BB16B
:100870002CB180917C008F5F8F7190917B008917E4
:1008800051F0932F987180937C00EFE7F0E0E80F30
:10089000F11D208301C092E090937A00FF91EF91C7
:1008A0009F918F913F912F910F900FBE0F901F90AE
:1008B00018951F920F920FB60F9211248F939F934A
:1008C000EF93FF9390917E0080917D00981769F0DF
:1008D00080917D008F5F8F7180937D00EFE9F0E064
:1008E000E80FF11D80818CB901C05598FF91EF91FF
:1008F0009F918F910F900FBE0F901F90189510929F
:100900007E0010927D0010927C0010927B00992353
:100910001CF422E02BB99F7790BD89B988E98AB988
:1009200086E880BD089590917C0080917B009817A7
:1009300091F080917B008F5F8F7180937B00EFE758
:10094000F0E0E80FF11D208130917A00932F80E0D4
:10095000820F911D089580E091E0089520917E001E
:100960002F5F2F7190917D002917E1F3EFE9F0E0FF
:10097000E20FF11D808320937E00559A0895CF9356
:10098000DF93EC018881882331F021960E94AE0428
:1009900089918823D9F7DF91CF910895CF93DF9381
:1009A000EC01FC018491882341F021960E94AE0461
:1009B000FE01219684918823C9F7DF91CF91089594
:1009C00004D06894B1118DC0089570D088F09F57FD
:1009D00090F0B92F9927B751A0F0D1F0660F771F8B
:1009E000881F991F1AF0BA95C9F712C0B13081F06B
:1009F00077D0B1E0089574C0672F782F8827B85F4B
:100A000039F0B93FCCF3869577956795B395D9F7CB
:100A10003EF490958095709561957F4F8F4F9F4FD5
:100A20000895E89409C097FB3EF4909580957095E1
:100A300061957F4F8F4F9F4F9923A9F0F92F96E92A
:100A4000BB279395F695879577956795B795F1119F
:100A5000F8CFFAF4BB0F11F460FF1BC06F5F7F4F3C
:100A60008F4F9F4F16C0882311F096E911C077234E
:100A700021F09EE8872F762F05C0662371F096E857
:100A8000862F70E060E02AF09A95660F771F881F26
:100A9000DAF7880F9695879597F9089557FD90583E
:100AA000440F551F59F05F3F71F04795880F97FB32
:100AB000991F61F09F3F79F08795089512161306EC
:100AC0001406551FF2CF4695F1DF08C0161617061B
:100AD0001806991FF1CF8695710561050894089550
:100AE000E894BB2766277727CB0197F908950BD0A9
:100AF00078C069D028F06ED018F0952309F05AC05C
:100B00005FC01124EECFCADFA0F3959FD1F3950FFC
:100B100050E0551F629FF001729FBB27F00DB11D81
:100B2000639FAA27F00DB11DAA1F649F6627B00D11
:100B3000A11D661F829F2227B00DA11D621F739FFA
:100B4000B00DA11D621F839FA00D611D221F749F08
:100B50003327A00D611D231F849F600D211D822F4F
:100B6000762F6A2F11249F5750408AF0E1F0882396
:100B70004AF0EE0FFF1FBB1F661F771F881F9150A3
:100B80005040A9F79E3F510570F014C0AACF5F3FB7
:100B9000ECF3983EDCF3869577956795B795F795D6
:100BA000E7959F5FC1F7FE2B880F911D969587955E
:100BB00097F9089597F99F6780E870E060E00895DD
:100BC0009FEF80EC089500240A9416161706180665
:100BD0000906089500240A94121613061406050641
:100BE0000895092E0394000C11F4882352F0BB0FD2
:100BF00040F4BF2B11F460FF04C06F5F7F4F8F4F35
:100C00009F4F0895AA1BBB1B51E107C0AA1FBB1F22
:100C1000A617B70710F0A61BB70B881F991F5A9588
:100C2000A9F780959095BC01CD01089597FB092EF9
:100C300007260AD077FD04D0E5DF06D000201AF49D
:100C4000709561957F4F0895F6F7909581959F4F28
:100C5000089597FB092E05260ED057FD04D014D019
:100C60000AD0001C38F450954095309521953F4F9F
:100C70004F4F5F4F0895F6F7909580957095619569
:100C80007F4F8F4F9F4F0895A1E21A2EAA1BBB1BC7
:100C9000FD010DC0AA1FBB1FEE1FFF1FA217B30748
:100CA000E407F50720F0A21BB30BE40BF50B661F5E
:100CB000771F881F991F1A9469F760957095809522
:100CC00090959B01AC01BD01CF010895AEE0B0E06D
:100CD000ECE6F6E00C9414090D891E8986E08C83FD
:100CE0001A8309838FEF9FE79E838D83AE01475E52
:100CF0005F4FCE0101966F89788D0E948806EF8143
:100D0000F885E00FF11F10822E96E4E00C94300974
:100D1000ADE0B0E0EEE8F6E00C9406093C017D871A
:100D20006C875A01FC0117821682838181FFC8C13A
:100D30002E010894411C511CF3019381EC85FD8523
:100D400093FD859193FF8191FD87EC87882309F4BA
:100D5000B3C1853241F493FD859193FF8191FD8765
:100D6000EC87853229F490E0B3010E947C08E4CF3F
:100D7000FF24EE2410E01032B0F48B3269F08C3294
:100D800028F4803251F0833271F40BC08D3239F087
:100D9000803349F411602CC01260146029C01860BF
:100DA00027C0106125C017FD2EC0282F20532A30E0
:100DB00098F416FF08C08F2D880FF82EFF0CFF0C3B
:100DC000F80EF20E15C08E2D880FE82EEE0CEE0CEC
:100DD000E80EE20E10620CC08E3221F416FD6CC1DA
:100DE000106406C08C3611F4106802C0883659F4BD
:100DF000EC85FD8593FD859193FF8191FD87EC87BF
:100E0000882309F0B8CF982F9554933018F090525A
:100E1000933038F424E030E0A20EB31E3FE3398370
:100E20000FC0833631F0833781F0833509F05AC023
:100E300022C0F5018081898322E030E0A20EB31E3A
:100E400021E0C22ED12C420114C092E0292E312C77
:100E50002A0C3B1CF5018080918016FF03C06F2D8A
:100E600070E002C06FEF7FEFC4010E9471086C0157
:100E700051011F7715C082E0282E312C2A0C3B1C13
:100E8000F5018080918016FF03C06F2D70E002C0D5
:100E90006FEF7FEFC4010E9466086C01106851017A
:100EA00013FD1CC006C080E290E0B3010E947C08E4
:100EB000EA948E2D90E0C816D906A8F30FC0F4016D
:100EC00017FD859117FF81914F0190E0B3010E94BA
:100ED0007C08E110EA940894C108D108C114D10437
:100EE00071F7E7C0843611F0893651F5F50117FF27
:100EF00007C080819181A281B38124E030E008C0E5
:100F000080819181AA2797FDA095BA2F22E030E039
:100F1000A20EB31E012F0F76B7FF08C0B095A095A3
:100F2000909581959F4FAF4FBF4F0068BC01CD0199
:100F3000A2012AE030E00E94A808D82ED4183FC0B1
:100F4000853721F41F7E2AE030E020C0197F8F36DC
:100F5000A9F0803720F4883509F0AEC00BC0803787
:100F600021F0883709F0A8C001C0106114FF09C042
:100F7000146007C014FF08C0166006C028E030E007
:100F800005C020E130E002C020E132E0F50117FFAA
:100F900007C0608171818281938144E050E006C086
:100FA0006081718180E090E042E050E0A40EB51EC7
:100FB000A2010E94A808D82ED418012F0F7706FF8F
:100FC00009C00E7FDF1430F404FF06C002FD04C028
:100FD0000F7E02C01D2D01C01F2D802F90E004FF49
:100FE0000CC0FE01ED0DF11D2081203311F4097EAE
:100FF00009C002FF06C01E5F05C08678907000978A
:1010000009F01F5F802E992403FD12C000FF0DC060
:10101000FD2C1E1550F4FE0CF11A1E2D06C080E2A8
:1010200090E0B3010E947C081F5F1E15C0F304C04E
:101030001E1510F4E11A01C0EE2484FE0FC080E3F7
:1010400090E0B3010E947C0882FE1FC081FE03C0B5
:1010500088E590E010C088E790E00DC0C401867874
:101060009070009791F081FC02C080E201C08BE299
:1010700007FD8DE290E0B3010E947C0806C080E38A
:1010800090E0B3010E947C08FA94DF14C0F3DA9474
:10109000F201ED0DF11D808190E0B3010E947C080A
:1010A000DD20A9F706C080E290E0B3010E947C0831
:1010B000EA94EE20C1F740CEF3018681978102C009
:1010C0008FEF9FEF2D96E2E10C942209FC01059031
:1010D000615070400110D8F7809590958E0F9F1F3A
:1010E0000895FC016150704001900110D8F780957F
:1010F00090958E0F9F1F08950F931F93CF93DF93AB
:101100008C01EB018B8181FF1BC082FF0DC02E8102
:101110003F818C819D812817390764F4E881F9812A
:101120000193F983E88306C0E885F985802F099546
:10113000009731F48E819F8101969F838E8302C038
:101140000FEF1FEFC801DF91CF911F910F9108950D
:10115000FA01AA27283051F1203181F1E8946F93E8
:101160006E7F6E5F7F4F8F4F9F4FAF4FB1E03ED08E
:10117000B4E03CD0670F781F891F9A1FA11D680F2C
:10118000791F8A1F911DA11D6A0F711D811D911D5F
:10119000A11D20D009F468943F912AE0269F1124D4
:1011A0003019305D3193DEF6CF010895462F477038
:1011B000405D4193B3E00FD0C9F7F6CF462F4F7093
:1011C000405D4A3318F0495D31FD4052419302D0F1
:1011D000A9F7EACFB4E0A695979587957795679597
:1011E000BA95C9F700976105710508959B01AC0197
:1011F0000A2E06945795479537952795BA95C9F7BE
:10120000620F731F841F951FA01D08952F923F9298
:101210004F925F926F927F928F929F92AF92BF9206
:10122000CF92DF92EF92FF920F931F93CF93DF93B2
:10123000CDB7DEB7CA1BDB0B0FB6F894DEBF0FBE0F
:10124000CDBF09942A88398848885F846E847D845C
:101250008C849B84AA84B984C884DF80EE80FD805E
:101260000C811B81AA81B981CE0FD11D0FB6F894D4
:0E127000DEBF0FBECDBFED010895F894FFCF95
:10127E0025640A002B202025640A002D20202564D9
:04128E000A00010051
:00000001FF
